{
  "contractName": "PollSystem",
  "abi": [
    {
      "constant": true,
      "inputs": [],
      "name": "votingsCount",
      "outputs": [
        {
          "name": "",
          "type": "uint256"
        }
      ],
      "payable": false,
      "stateMutability": "view",
      "type": "function"
    },
    {
      "constant": true,
      "inputs": [
        {
          "name": "",
          "type": "uint256"
        }
      ],
      "name": "users",
      "outputs": [
        {
          "name": "",
          "type": "address"
        }
      ],
      "payable": false,
      "stateMutability": "view",
      "type": "function"
    },
    {
      "constant": true,
      "inputs": [],
      "name": "usersCount",
      "outputs": [
        {
          "name": "",
          "type": "uint256"
        }
      ],
      "payable": false,
      "stateMutability": "view",
      "type": "function"
    },
    {
      "constant": false,
      "inputs": [],
      "name": "renounceOwnership",
      "outputs": [],
      "payable": false,
      "stateMutability": "nonpayable",
      "type": "function"
    },
    {
      "constant": true,
      "inputs": [],
      "name": "owner",
      "outputs": [
        {
          "name": "",
          "type": "address"
        }
      ],
      "payable": false,
      "stateMutability": "view",
      "type": "function"
    },
    {
      "constant": true,
      "inputs": [],
      "name": "isOwner",
      "outputs": [
        {
          "name": "",
          "type": "bool"
        }
      ],
      "payable": false,
      "stateMutability": "view",
      "type": "function"
    },
    {
      "constant": true,
      "inputs": [
        {
          "name": "",
          "type": "uint256"
        }
      ],
      "name": "votings",
      "outputs": [
        {
          "name": "consensusRate",
          "type": "uint256"
        },
        {
          "name": "quorumRate",
          "type": "uint256"
        },
        {
          "name": "createdAt",
          "type": "uint256"
        },
        {
          "name": "availableUntil",
          "type": "uint256"
        },
        {
          "name": "choicesCount",
          "type": "uint256"
        },
        {
          "name": "question",
          "type": "string"
        }
      ],
      "payable": false,
      "stateMutability": "view",
      "type": "function"
    },
    {
      "constant": true,
      "inputs": [
        {
          "name": "",
          "type": "address"
        }
      ],
      "name": "userActive",
      "outputs": [
        {
          "name": "",
          "type": "bool"
        }
      ],
      "payable": false,
      "stateMutability": "view",
      "type": "function"
    },
    {
      "constant": false,
      "inputs": [
        {
          "name": "newOwner",
          "type": "address"
        }
      ],
      "name": "transferOwnership",
      "outputs": [],
      "payable": false,
      "stateMutability": "nonpayable",
      "type": "function"
    },
    {
      "inputs": [],
      "payable": false,
      "stateMutability": "nonpayable",
      "type": "constructor"
    },
    {
      "anonymous": false,
      "inputs": [
        {
          "indexed": true,
          "name": "previousOwner",
          "type": "address"
        },
        {
          "indexed": true,
          "name": "newOwner",
          "type": "address"
        }
      ],
      "name": "OwnershipTransferred",
      "type": "event"
    },
    {
      "constant": false,
      "inputs": [
        {
          "name": "_userAddress",
          "type": "address"
        }
      ],
      "name": "addUser",
      "outputs": [],
      "payable": false,
      "stateMutability": "nonpayable",
      "type": "function"
    },
    {
      "constant": false,
      "inputs": [
        {
          "name": "_consensusRate",
          "type": "uint256"
        },
        {
          "name": "_quorumRate",
          "type": "uint256"
        },
        {
          "name": "_availableUntil",
          "type": "uint256"
        },
        {
          "name": "_question",
          "type": "string"
        },
        {
          "name": "_choices",
          "type": "string[]"
        }
      ],
      "name": "createPoll",
      "outputs": [],
      "payable": false,
      "stateMutability": "nonpayable",
      "type": "function"
    },
    {
      "constant": false,
      "inputs": [
        {
          "name": "_userAddress",
          "type": "address"
        }
      ],
      "name": "removeUser",
      "outputs": [],
      "payable": false,
      "stateMutability": "nonpayable",
      "type": "function"
    },
    {
      "constant": false,
      "inputs": [
        {
          "name": "_votingIndex",
          "type": "uint256"
        },
        {
          "name": "_choiceIndex",
          "type": "uint256"
        }
      ],
      "name": "vote",
      "outputs": [],
      "payable": false,
      "stateMutability": "nonpayable",
      "type": "function"
    },
    {
      "constant": true,
      "inputs": [
        {
          "name": "_votingIndex",
          "type": "uint256"
        }
      ],
      "name": "getChoicesFromVoting",
      "outputs": [
        {
          "name": "",
          "type": "string[]"
        }
      ],
      "payable": false,
      "stateMutability": "view",
      "type": "function"
    },
    {
      "constant": true,
      "inputs": [
        {
          "name": "_votingIndex",
          "type": "uint256"
        }
      ],
      "name": "getVotesCount",
      "outputs": [
        {
          "name": "",
          "type": "uint256[]"
        }
      ],
      "payable": false,
      "stateMutability": "view",
      "type": "function"
    },
    {
      "constant": true,
      "inputs": [
        {
          "name": "_votingIndex",
          "type": "uint256"
        },
        {
          "name": "_userAddress",
          "type": "address"
        }
      ],
      "name": "isUserVoted",
      "outputs": [
        {
          "name": "",
          "type": "bool"
        }
      ],
      "payable": false,
      "stateMutability": "view",
      "type": "function"
    }
  ],
  "bytecode": "0x608060405234801561001057600080fd5b50336000806101000a81548173ffffffffffffffffffffffffffffffffffffffff021916908373ffffffffffffffffffffffffffffffffffffffff1602179055506000809054906101000a900473ffffffffffffffffffffffffffffffffffffffff1673ffffffffffffffffffffffffffffffffffffffff16600073ffffffffffffffffffffffffffffffffffffffff167f8be0079c531659141344cd1fd0a4f28419497f9722a3daafe3b4186f6b6457e060405160405180910390a361211c806100dc6000396000f3fe608060405234801561001057600080fd5b50600436106101005760003560e01c80638f32d59b11610097578063b384abef11610066578063b384abef146102a0578063d1273406146102bc578063ddebf08c146102ec578063f2fde38b1461031c57610100565b80638f32d59b14610201578063985751881461021f578063a598d03c1461023b578063ac7a5f041461027057610100565b8063421b2d8b116100d3578063421b2d8b1461019f5780636ba13a82146101bb578063715018a6146101d95780638da5cb5b146101e357610100565b80631937c26114610105578063211fcf1914610135578063345c225614610153578063365b98b21461016f575b600080fd5b61011f600480360361011a9190810190611728565b610338565b60405161012c9190611d6f565b60405180910390f35b61013d610443565b60405161014a9190611f0c565b60405180910390f35b61016d600480360361016891908101906117c9565b610449565b005b61018960048036036101849190810190611728565b6107b8565b6040516101969190611d32565b60405180910390f35b6101b960048036036101b491908101906116ff565b6107f4565b005b6101c3610951565b6040516101d09190611f0c565b60405180910390f35b6101e1610957565b005b6101eb610a27565b6040516101f89190611d32565b60405180910390f35b610209610a50565b6040516102169190611d91565b60405180910390f35b610239600480360361023491908101906116ff565b610aa7565b005b61025560048036036102509190810190611728565b610c6a565b60405161026796959493929190611f27565b60405180910390f35b61028a600480360361028591908101906116ff565b610d3e565b6040516102979190611d91565b60405180910390f35b6102ba60048036036102b5919081019061178d565b610d5e565b005b6102d660048036036102d19190810190611728565b611055565b6040516102e39190611d4d565b60405180910390f35b61030660048036036103019190810190611751565b611198565b6040516103139190611d91565b60405180910390f35b610336600480360361033191908101906116ff565b6112b7565b005b6060600554821061037e576040517f08c379a000000000000000000000000000000000000000000000000000000000815260040161037590611ecc565b60405180910390fd5b606060046000848152602001908152602001600020600401546040519080825280602002602001820160405280156103c55781602001602082028038833980820191505090505b50905060008090505b6004600085815260200190815260200160002060040154811015610439576004600085815260200190815260200160002060080160008281526020019081526020016000205482828151811061042057fe5b60200260200101818152505080806001019150506103ce565b5080915050919050565b60055481565b610451610a50565b61045a57600080fd5b6000871161049d576040517f08c379a000000000000000000000000000000000000000000000000000000000815260040161049490611eec565b60405180910390fd5b600086116104e0576040517f08c379a00000000000000000000000000000000000000000000000000000000081526004016104d790611dec565b60405180910390fd5b428511610522576040517f08c379a000000000000000000000000000000000000000000000000000000000815260040161051990611dcc565b60405180910390fd5b60008484905011610568576040517f08c379a000000000000000000000000000000000000000000000000000000000815260040161055f90611e0c565b60405180910390fd5b600082829050116105ae576040517f08c379a00000000000000000000000000000000000000000000000000000000081526004016105a590611e6c565b60405180910390fd5b6105b661140b565b878160000181815250508681602001818152505042816040018181525050858160600181815250508282905081608001818152505084848080601f016020809104026020016040519081016040528093929190818152602001838380828437600081840152601f19601f820116905080830192505050505050508160a0018190525080600460006005548152602001908152602001600020600082015181600001556020820151816001015560408201518160020155606082015181600301556080820151816004015560a082015181600501908051906020019061069c929190611448565b5060c08201518160060190805190602001906106b99291906114c8565b5090505060008090505b83839050811015610791576004600060055481526020019081526020016000206006018484838181106106f257fe5b905060200281018035600160200383360303811261070f57600080fd5b8083019250508135905060208201915067ffffffffffffffff81111561073457600080fd5b60018102360382131561074657600080fd5b90918060018154018082558091505090600182039060005260206000200160009091929390919293909192909192509190610782929190611528565b505080806001019150506106c3565b506107a860016005546112d490919063ffffffff16565b6005819055505050505050505050565b600281815481106107c557fe5b906000526020600020016000915054906101000a900473ffffffffffffffffffffffffffffffffffffffff1681565b6107fc610a50565b61080557600080fd5b600073ffffffffffffffffffffffffffffffffffffffff168173ffffffffffffffffffffffffffffffffffffffff161415610875576040517f08c379a000000000000000000000000000000000000000000000000000000000815260040161086c90611e8c565b60405180910390fd5b60018060008373ffffffffffffffffffffffffffffffffffffffff1673ffffffffffffffffffffffffffffffffffffffff16815260200190815260200160002060006101000a81548160ff02191690831515021790555060028190806001815401808255809150509060018203906000526020600020016000909192909190916101000a81548173ffffffffffffffffffffffffffffffffffffffff021916908373ffffffffffffffffffffffffffffffffffffffff1602179055505061094860016003546112d490919063ffffffff16565b60038190555050565b60035481565b61095f610a50565b61096857600080fd5b600073ffffffffffffffffffffffffffffffffffffffff166000809054906101000a900473ffffffffffffffffffffffffffffffffffffffff1673ffffffffffffffffffffffffffffffffffffffff167f8be0079c531659141344cd1fd0a4f28419497f9722a3daafe3b4186f6b6457e060405160405180910390a360008060006101000a81548173ffffffffffffffffffffffffffffffffffffffff021916908373ffffffffffffffffffffffffffffffffffffffff160217905550565b60008060009054906101000a900473ffffffffffffffffffffffffffffffffffffffff16905090565b60008060009054906101000a900473ffffffffffffffffffffffffffffffffffffffff1673ffffffffffffffffffffffffffffffffffffffff163373ffffffffffffffffffffffffffffffffffffffff1614905090565b610aaf610a50565b610ab857600080fd5b600073ffffffffffffffffffffffffffffffffffffffff168173ffffffffffffffffffffffffffffffffffffffff161415610b28576040517f08c379a0000000000000000000000000000000000000000000000000000000008152600401610b1f90611e8c565b60405180910390fd5b6000600160008373ffffffffffffffffffffffffffffffffffffffff1673ffffffffffffffffffffffffffffffffffffffff16815260200190815260200160002060006101000a81548160ff02191690831515021790555060008090505b600280549050811015610c4a578173ffffffffffffffffffffffffffffffffffffffff1660028281548110610bb757fe5b9060005260206000200160009054906101000a900473ffffffffffffffffffffffffffffffffffffffff1673ffffffffffffffffffffffffffffffffffffffff161415610c3d5760028181548110610c0b57fe5b9060005260206000200160006101000a81549073ffffffffffffffffffffffffffffffffffffffff0219169055610c4a565b8080600101915050610b86565b50610c6160016003546112f390919063ffffffff16565b60038190555050565b6004602052806000526040600020600091509050806000015490806001015490806002015490806003015490806004015490806005018054600181600116156101000203166002900480601f016020809104026020016040519081016040528092919081815260200182805460018160011615610100020316600290048015610d345780601f10610d0957610100808354040283529160200191610d34565b820191906000526020600020905b815481529060010190602001808311610d1757829003601f168201915b5050505050905086565b60016020528060005260406000206000915054906101000a900460ff1681565b600160003373ffffffffffffffffffffffffffffffffffffffff1673ffffffffffffffffffffffffffffffffffffffff16815260200190815260200160002060009054906101000a900460ff16610dea576040517f08c379a0000000000000000000000000000000000000000000000000000000008152600401610de190611eac565b60405180910390fd5b6005548210610e2e576040517f08c379a0000000000000000000000000000000000000000000000000000000008152600401610e2590611ecc565b60405180910390fd5b60046000838152602001908152602001600020600401548110610e86576040517f08c379a0000000000000000000000000000000000000000000000000000000008152600401610e7d90611e2c565b60405180910390fd5b60046000838152602001908152602001600020600301544210610ede576040517f08c379a0000000000000000000000000000000000000000000000000000000008152600401610ed590611dac565b60405180910390fd5b6004600083815260200190815260200160002060070160003373ffffffffffffffffffffffffffffffffffffffff1673ffffffffffffffffffffffffffffffffffffffff16815260200190815260200160002060009054906101000a900460ff1615610f7f576040517f08c379a0000000000000000000000000000000000000000000000000000000008152600401610f7690611e4c565b60405180910390fd5b610fba6001600460008581526020019081526020016000206008016000848152602001908152602001600020546112d490919063ffffffff16565b6004600084815260200190815260200160002060080160008381526020019081526020016000208190555060016004600084815260200190815260200160002060070160003373ffffffffffffffffffffffffffffffffffffffff1673ffffffffffffffffffffffffffffffffffffffff16815260200190815260200160002060006101000a81548160ff0219169083151502179055505050565b6060600554821061109b576040517f08c379a000000000000000000000000000000000000000000000000000000000815260040161109290611ecc565b60405180910390fd5b60046000838152602001908152602001600020600601805480602002602001604051908101604052809291908181526020016000905b8282101561118d578382906000526020600020018054600181600116156101000203166002900480601f0160208091040260200160405190810160405280929190818152602001828054600181600116156101000203166002900480156111795780601f1061114e57610100808354040283529160200191611179565b820191906000526020600020905b81548152906001019060200180831161115c57829003601f168201915b5050505050815260200190600101906110d1565b505050509050919050565b600060055483106111de576040517f08c379a00000000000000000000000000000000000000000000000000000000081526004016111d590611ecc565b60405180910390fd5b600073ffffffffffffffffffffffffffffffffffffffff168273ffffffffffffffffffffffffffffffffffffffff16141561124e576040517f08c379a000000000000000000000000000000000000000000000000000000000815260040161124590611e8c565b60405180910390fd5b6004600084815260200190815260200160002060070160008373ffffffffffffffffffffffffffffffffffffffff1673ffffffffffffffffffffffffffffffffffffffff16815260200190815260200160002060009054906101000a900460ff16905092915050565b6112bf610a50565b6112c857600080fd5b6112d181611313565b50565b6000808284019050838110156112e957600080fd5b8091505092915050565b60008282111561130257600080fd5b600082840390508091505092915050565b600073ffffffffffffffffffffffffffffffffffffffff168173ffffffffffffffffffffffffffffffffffffffff16141561134d57600080fd5b8073ffffffffffffffffffffffffffffffffffffffff166000809054906101000a900473ffffffffffffffffffffffffffffffffffffffff1673ffffffffffffffffffffffffffffffffffffffff167f8be0079c531659141344cd1fd0a4f28419497f9722a3daafe3b4186f6b6457e060405160405180910390a3806000806101000a81548173ffffffffffffffffffffffffffffffffffffffff021916908373ffffffffffffffffffffffffffffffffffffffff16021790555050565b6040518060e00160405280600081526020016000815260200160008152602001600081526020016000815260200160608152602001606081525090565b828054600181600116156101000203166002900490600052602060002090601f016020900481019282601f1061148957805160ff19168380011785556114b7565b828001600101855582156114b7579182015b828111156114b657825182559160200191906001019061149b565b5b5090506114c491906115a8565b5090565b828054828255906000526020600020908101928215611517579160200282015b82811115611516578251829080519060200190611506929190611448565b50916020019190600101906114e8565b5b50905061152491906115cd565b5090565b828054600181600116156101000203166002900490600052602060002090601f016020900481019282601f1061156957803560ff1916838001178555611597565b82800160010185558215611597579182015b8281111561159657823582559160200191906001019061157b565b5b5090506115a491906115a8565b5090565b6115ca91905b808211156115c65760008160009055506001016115ae565b5090565b90565b6115f691905b808211156115f257600081816115e991906115f9565b506001016115d3565b5090565b90565b50805460018160011615610100020316600290046000825580601f1061161f575061163e565b601f01602090049060005260206000209081019061163d91906115a8565b5b50565b600081359050611650816120b4565b92915050565b60008083601f84011261166857600080fd5b8235905067ffffffffffffffff81111561168157600080fd5b60208301915083602082028301111561169957600080fd5b9250929050565b60008083601f8401126116b257600080fd5b8235905067ffffffffffffffff8111156116cb57600080fd5b6020830191508360018202830111156116e357600080fd5b9250929050565b6000813590506116f9816120cb565b92915050565b60006020828403121561171157600080fd5b600061171f84828501611641565b91505092915050565b60006020828403121561173a57600080fd5b6000611748848285016116ea565b91505092915050565b6000806040838503121561176457600080fd5b6000611772858286016116ea565b925050602061178385828601611641565b9150509250929050565b600080604083850312156117a057600080fd5b60006117ae858286016116ea565b92505060206117bf858286016116ea565b9150509250929050565b600080600080600080600060a0888a0312156117e457600080fd5b60006117f28a828b016116ea565b97505060206118038a828b016116ea565b96505060406118148a828b016116ea565b955050606088013567ffffffffffffffff81111561183157600080fd5b61183d8a828b016116a0565b9450945050608088013567ffffffffffffffff81111561185c57600080fd5b6118688a828b01611656565b925092505092959891949750929550565b60006118858383611996565b905092915050565b60006118998383611d14565b60208301905092915050565b6118ae81612028565b82525050565b60006118bf82611fa9565b6118c98185611fe4565b9350836020820285016118db85611f8f565b8060005b8581101561191757848403895281516118f88582611879565b945061190383611fca565b925060208a019950506001810190506118df565b50829750879550505050505092915050565b600061193482611fb4565b61193e8185611ff5565b935061194983611f9c565b8060005b8381101561197a578151611961888261188d565b975061196c83611fd7565b92505060018101905061194d565b5085935050505092915050565b6119908161203a565b82525050565b60006119a182611fbf565b6119ab8185612006565b93506119bb818560208601612070565b6119c4816120a3565b840191505092915050565b60006119da82611fbf565b6119e48185612017565b93506119f4818560208601612070565b6119fd816120a3565b840191505092915050565b6000611a15600e83612017565b91507f766f74696e67206973206f7665720000000000000000000000000000000000006000830152602082019050919050565b6000611a55602d83612017565b91507f766f74696e672066696e69736820646174652073686f756c642062652067726560008301527f61746572207468616e206e6f77000000000000000000000000000000000000006020830152604082019050919050565b6000611abb601883612017565b91507f71756f72756d20726174652063616e206e6f74206265203000000000000000006000830152602082019050919050565b6000611afb601983612017565b91507f7175657374696f6e2063616e206e6f7420626520656d707479000000000000006000830152602082019050919050565b6000611b3b601583612017565b91507f63686f69636520646f6573206e6f7420657869737400000000000000000000006000830152602082019050919050565b6000611b7b601283612017565b91507f7573657220616c726561647920766f74656400000000000000000000000000006000830152602082019050919050565b6000611bbb601883612017565b91507f63686f696365732063616e206e6f7420626520656d70747900000000000000006000830152602082019050919050565b6000611bfb601c83612017565b91507f7573657220616464726573732063616e206e6f742062652030783030000000006000830152602082019050919050565b6000611c3b602183612017565b91507f6f6e6c7920757365722063616e20706572666f726d207468697320616374696f60008301527f6e000000000000000000000000000000000000000000000000000000000000006020830152604082019050919050565b6000611ca1601583612017565b91507f766f74696e6720646f6573206e6f7420657869737400000000000000000000006000830152602082019050919050565b6000611ce1601b83612017565b91507f636f6e73656e73757320726174652063616e206e6f74206265203000000000006000830152602082019050919050565b611d1d81612066565b82525050565b611d2c81612066565b82525050565b6000602082019050611d4760008301846118a5565b92915050565b60006020820190508181036000830152611d6781846118b4565b905092915050565b60006020820190508181036000830152611d898184611929565b905092915050565b6000602082019050611da66000830184611987565b92915050565b60006020820190508181036000830152611dc581611a08565b9050919050565b60006020820190508181036000830152611de581611a48565b9050919050565b60006020820190508181036000830152611e0581611aae565b9050919050565b60006020820190508181036000830152611e2581611aee565b9050919050565b60006020820190508181036000830152611e4581611b2e565b9050919050565b60006020820190508181036000830152611e6581611b6e565b9050919050565b60006020820190508181036000830152611e8581611bae565b9050919050565b60006020820190508181036000830152611ea581611bee565b9050919050565b60006020820190508181036000830152611ec581611c2e565b9050919050565b60006020820190508181036000830152611ee581611c94565b9050919050565b60006020820190508181036000830152611f0581611cd4565b9050919050565b6000602082019050611f216000830184611d23565b92915050565b600060c082019050611f3c6000830189611d23565b611f496020830188611d23565b611f566040830187611d23565b611f636060830186611d23565b611f706080830185611d23565b81810360a0830152611f8281846119cf565b9050979650505050505050565b6000602082019050919050565b6000602082019050919050565b600081519050919050565b600081519050919050565b600081519050919050565b6000602082019050919050565b6000602082019050919050565b600082825260208201905092915050565b600082825260208201905092915050565b600082825260208201905092915050565b600082825260208201905092915050565b600061203382612046565b9050919050565b60008115159050919050565b600073ffffffffffffffffffffffffffffffffffffffff82169050919050565b6000819050919050565b60005b8381101561208e578082015181840152602081019050612073565b8381111561209d576000848401525b50505050565b6000601f19601f8301169050919050565b6120bd81612028565b81146120c857600080fd5b50565b6120d481612066565b81146120df57600080fd5b5056fea265627a7a72305820026698538455ce16d6c7c089ac85f6224f797fbebc64afc564d7f0b0102b67706c6578706572696d656e74616cf50037",
  "source": "pragma solidity ^0.5.0;\npragma experimental ABIEncoderV2;\n\nimport \"openzeppelin-solidity/contracts/math/SafeMath.sol\";\nimport \"openzeppelin-solidity/contracts/ownership/Ownable.sol\";\n\ncontract PollSystem is Ownable {\n\n\tusing SafeMath for uint;\n\n\tmapping(address => bool) public userActive;\n\taddress[] public users;\n\tuint public usersCount;\n\n\tmapping(uint => Voting) public votings;\n\tuint public votingsCount;\n\n\tstruct Voting {\n\t\tuint consensusRate;\n\t\tuint quorumRate;\n\t\tuint createdAt;\n\t\tuint availableUntil;\n\t\tuint choicesCount;\n\t\tstring question;\n\t\tstring[] choices;\n\t\tmapping(address => bool) voted;\n\t\tmapping(uint => uint) choiceVotesCount;\n\t}\n\n\tconstructor() public {}\n\n\t//**********\n\t// Modifiers\n\t//**********\n\n\t/**\n\t * @dev Modifier checks that action can be called only by user\n\t */\n\tmodifier onlyUser() {\n\t\trequire(userActive[msg.sender], \"only user can perform this action\");\n\t\t_;\n\t}\n\n\t//**************\n\t// Owner methods\n\t//**************\n\n\t/**\n\t * @dev Adds a new user that can vote\n\t * @param _userAddress user address\n\t */\n\tfunction addUser(address _userAddress) external onlyOwner {\n\t\trequire(_userAddress != address(0), \"user address can not be 0x00\");\n\t\tuserActive[_userAddress] = true;\n\t\tusers.push(_userAddress);\n\t\tusersCount = usersCount.add(1);\n\t}\n\n\t/**\n\t * @dev Creates a new poll\n\t * @param _consensusRate consensus rate, min rate of voters with acceptable decision to approve proposal, 10000 = 100%\n\t * @param _quorumRate quorum rate, min rate of voters for proposal to be active, 10000 = 100%\n\t * @param _availableUntil available until timestamp, until this date users can vote\n\t * @param _question proposal text\n\t * @param _choices proposal choices\n\t */\n\tfunction createPoll(uint _consensusRate, uint _quorumRate, uint _availableUntil, string calldata _question, string[] calldata _choices) external onlyOwner {\n\t\t// validation\n\t\trequire(_consensusRate > 0, \"consensus rate can not be 0\");\n\t\trequire(_quorumRate > 0, \"quorum rate can not be 0\");\n\t\trequire(_availableUntil > now, \"voting finish date should be greater than now\");\n\t\trequire(bytes(_question).length > 0, \"question can not be empty\");\n\t\trequire(_choices.length > 0, \"choices can not be empty\");\n\t\t// create and save a new poll\n\t\tVoting memory voting;\n\t\tvoting.consensusRate = _consensusRate;\n\t\tvoting.quorumRate = _quorumRate;\n\t\tvoting.createdAt = now;\n\t\tvoting.availableUntil = _availableUntil;\n\t\tvoting.choicesCount = _choices.length;\n\t\tvoting.question = _question;\n\t\tvotings[votingsCount] = voting;\n\t\t// assign choices to voting\n\t\tfor(uint i = 0; i < _choices.length; i++) {\n\t\t\tvotings[votingsCount].choices.push(_choices[i]);\n\t\t}\n\t\t// update global votings count\n\t\tvotingsCount = votingsCount.add(1);\n\t}\n\n\t/**\n     * @dev Removes user that can vote\n     * @param _userAddress user address to be deleted\n     */\n    function removeUser(address _userAddress) external onlyOwner {\n        require(_userAddress != address(0), \"user address can not be 0x00\");\n        // disable user and remove his address\n        userActive[_userAddress] = false;\n        for(uint i = 0; i < users.length; i++) {\n            if(users[i] == _userAddress) {\n                delete users[i];\n                break;\n            }\n        }\n\t\t// decrease users count by 1\n\t\tusersCount = usersCount.sub(1);\n    }\n\n\t//*************\n\t// User methods\n\t//*************\n\n\t/**\n\t * @dev Votes for a choice\n\t * @param _votingIndex voting index\n\t * @param _choiceIndex choice index\n\t */\n\tfunction vote(uint _votingIndex, uint _choiceIndex) external onlyUser {\n\t\t// validation\n\t\trequire(_votingIndex < votingsCount, \"voting does not exist\");\n\t\trequire(_choiceIndex < votings[_votingIndex].choicesCount, \"choice does not exist\");\n\t\trequire(now < votings[_votingIndex].availableUntil, \"voting is over\");\n\t\trequire(!votings[_votingIndex].voted[msg.sender], \"user already voted\");\n\t\t// increase choice by 1\n\t\tvotings[_votingIndex].choiceVotesCount[_choiceIndex] = votings[_votingIndex].choiceVotesCount[_choiceIndex].add(1);\n\t\t// set user as voted\n\t\tvotings[_votingIndex].voted[msg.sender] = true;\n\t}\n\n\t//***************\n\t// Public methods\n\t//***************\n\n\t/**\n\t * @dev Returns an array of choices for a voting\n\t * @param _votingIndex voting index\n\t * @return array of choices\n\t */\n\tfunction getChoicesFromVoting(uint _votingIndex) external view returns(string[] memory) {\n\t\trequire(_votingIndex < votingsCount, \"voting does not exist\");\n\t\treturn votings[_votingIndex].choices;\n\t}\n\n\t/**\n\t * @dev Returns array with votes count per choice\n\t * @param _votingIndex voting index\n\t * @return array with votes count for each choice\n\t */\n\tfunction getVotesCount(uint _votingIndex) external view returns(uint[] memory) {\n\t\trequire(_votingIndex < votingsCount, \"voting does not exist\");\n\t\tuint[] memory votesCount = new uint[](votings[_votingIndex].choicesCount);\n\t\tfor(uint i = 0; i < votings[_votingIndex].choicesCount; i++) {\n\t\t\tvotesCount[i] = votings[_votingIndex].choiceVotesCount[i];\n\t\t}\n\t\treturn votesCount;\n\t}\n\n\t/**\n\t * @dev Checks whether user has already voted\n\t * @param _votingIndex voting index\n\t * @param _userAddress user address\n\t * @return whether user voted\n\t */\n\tfunction isUserVoted(uint _votingIndex, address _userAddress) external view returns(bool) {\n\t\trequire(_votingIndex < votingsCount, \"voting does not exist\");\n\t\trequire(_userAddress != address(0), \"user address can not be 0x00\");\n\t\treturn votings[_votingIndex].voted[_userAddress];\n\t}\n\n}\n",
  "sourcePath": "/home/vladimir/Public/projects/truffle/football-coin/contracts/PollSystem.sol",
  "compiler": {
    "name": "solc",
    "version": "0.5.8+commit.23d335f2.Emscripten.clang"
  },
  "schemaVersion": "3.0.11",
  "updatedAt": "2019-06-19T22:10:22.992Z",
  "devdoc": {
    "methods": {
      "addUser(address)": {
        "details": "Adds a new user that can vote",
        "params": {
          "_userAddress": "user address"
        }
      },
      "createPoll(uint256,uint256,uint256,string,string[])": {
        "details": "Creates a new poll",
        "params": {
          "_availableUntil": "available until timestamp, until this date users can vote",
          "_choices": "proposal choices",
          "_consensusRate": "consensus rate, min rate of voters with acceptable decision to approve proposal, 10000 = 100%",
          "_question": "proposal text",
          "_quorumRate": "quorum rate, min rate of voters for proposal to be active, 10000 = 100%"
        }
      },
      "getChoicesFromVoting(uint256)": {
        "details": "Returns an array of choices for a voting",
        "params": {
          "_votingIndex": "voting index"
        },
        "return": "array of choices"
      },
      "getVotesCount(uint256)": {
        "details": "Returns array with votes count per choice",
        "params": {
          "_votingIndex": "voting index"
        },
        "return": "array with votes count for each choice"
      },
      "isOwner()": {
        "return": "true if `msg.sender` is the owner of the contract."
      },
      "isUserVoted(uint256,address)": {
        "details": "Checks whether user has already voted",
        "params": {
          "_userAddress": "user address",
          "_votingIndex": "voting index"
        },
        "return": "whether user voted"
      },
      "owner()": {
        "return": "the address of the owner."
      },
      "removeUser(address)": {
        "details": "Removes user that can vote",
        "params": {
          "_userAddress": "user address to be deleted"
        }
      },
      "renounceOwnership()": {
        "details": "Allows the current owner to relinquish control of the contract."
      },
      "transferOwnership(address)": {
        "details": "Allows the current owner to transfer control of the contract to a newOwner.",
        "params": {
          "newOwner": "The address to transfer ownership to."
        }
      },
      "vote(uint256,uint256)": {
        "details": "Votes for a choice",
        "params": {
          "_choiceIndex": "choice index",
          "_votingIndex": "voting index"
        }
      }
    }
  },
  "userdoc": {
    "methods": {
      "renounceOwnership()": {
        "notice": "Renouncing to ownership will leave the contract without an owner. It will not be possible to call the functions with the `onlyOwner` modifier anymore."
      }
    }
  }
}